:020000040800F2
:1000000000180020D5000008B12200087121000866
:1000100000000000000000000000000000000000E0
:10002000000000000000000000000000452700085C
:10003000000000000000000081260008472700089B
:100040000501000805010008050100080501000878
:100050000501000805010008050100080501000868
:100060000501000805010008050100080501000858
:100070000501000805010008050100080501000848
:100080000501000800000000000000000501000854
:100090000000000005010008050100080501000836
:1000A0000000000005010008050100080501000826
:1000B000050100080000000055040008353700085D
:1000C0000348854600F076F800480047C13700082D
:1000D000001800200C4880F308880C480168090EBD
:1000E0000B4A914205D10B480B4901600B480C4962
:1000F00001600C4880470C480047FEE7FEE7FEE73A
:10010000FEE7FEE7FEE70000001800200400000004
:100110001F00000018100240010000000000014014
:1001200000000000B9270008C100000830B50B46E8
:10013000014600202022012409E00D46D5409D42C1
:1001400005D31D469540491B254695404019154647
:10015000521E002DF1DC30BD03460B439B0703D03C
:1001600009E008C9121F08C0042AFAD203E00B787C
:100170000370401C491C521EF9D27047D2B201E0F4
:100180000270401C491EFBD270470022F6E710B5F2
:1001900013460A4604461946FFF7F0FF204610BDF5
:1001A0000321001D401E037812021A43491EF9D58F
:1001B00010467047064C0125064E05E0E36807CC63
:1001C0002B430C3C98471034B442F7D3FFF77CFF25
:1001D000F0390008103A000870B58C180578401CFA
:1001E0006B075B0F01D10378401C2A1106D10278FE
:1001F000401C03E006780E70401C491C5B1EF9D1C0
:100200002B0705D40023521E0DD40B70491CFAE7AE
:100210000378401CCB1A921C03E01D780D70491C1A
:100220005B1C521EF9D5A142D8D3002070BD00003E
:1002300070B5184D18486A7800240121002A4461DD
:100240000AD0C4618161EA88520114C0046044602C
:100250008460C461816108E08461046044608460FA
:10026000C460C1610461446201620B49C81FFD386A
:1002700000F068F9084940390846C4380246E032BF
:1002800042630163CC60016B8C60006BA9880160E4
:1002900070BD0000000000207002002070B5002931
:1002A00059D0826B0B011C46FF340568B1342D59BF
:1002B00004263540956005682D594ED0ED085560EF
:1002C00005682C59A407E40FD4601C46FF34056868
:1002D000B5342D592D072D0F156105682C592404AF
:1002E000240ED46111621C46FF340568B9342D59BF
:1002F000157505682D592D0A557505682D592D0C54
:10030000957505682C59FF33240ED4750468BD33E8
:10031000E45814760468E458240A54760468E458CF
:10032000240C94760468E3581B0ED37620220368CD
:10033000002915D01C6914431C61026853695024BC
:10034000A343536102462032537F222B0FD0537FA9
:10035000322B0CD011E0426BA4E76D0D1560AFE7B6
:10036000DC681443DC60026853690A24E8E7036828
:100370005C698F252D02AC435C61122301240029A6
:10038000517F06D0522913D0622913D0722906D189
:1003900012E042290CD0622906D0722906D0547787
:1003A00000F082FB002070BD322106E0522104E003
:1003B0005377F5E7222100E042215177F0E7002052
:1003C000704700207047000010B50022044905481E
:1003D00002F06BFC0449034802F05DFC002010BDF4
:1003E000FC0F002098030020FC0B00203EB50446C3
:1003F0000A7868460272012141722146FFF7ACFE7D
:100400006946064802F058F92146054802F043FCC7
:10041000034802F01AFC00203EBD000098020020B4
:10042000980300200A4610B508498969FF31FF3159
:1004300002314969002901D0012010BD014604485C
:1004400002F033FC024802F075FC10BD9805002054
:100450009803002010B5044800F002F9002102487A
:1004600000F0CAFA10BD00006C01002030B5002277
:10047000094C0BE003781B025A400823150400D5F1
:10048000624052005B1EF9D1401C491E0029F1D187
:100490001004000E30BD0000808300007047000093
:1004A0000B49CA68D207FCD10B69022213430B61C6
:1004B00048610869402318430861C868C007FCD137
:1004C0000869400840000861086990430861704766
:1004D0000020024070B515460C46064603F066F94A
:1004E000002304E0580040190078F0545B1CA3423C
:1004F000F8DB70BD70B514460D46064600F0C0FB33
:100500002046FFF7CDFF0E4B186901210843186103
:10051000002006E0D968C907FCD1315C4200A15235
:10052000401CA842F6DBD868C007FCD11869400817
:1005300040001861186980210843186170BD0000EF
:1005400000200240F0B50B7D01229A400368FF3382
:10055000FF3302331C683F252D02AC434D6A2D0248
:100560006D1C2C431C600368FF33FF330233DC69CE
:100570009443DC610924A401CB69251D002B1AD109
:100580000368FF33FF330233DE689643DE608B89F6
:100590008E881B04B6B24F6933430668FF003F19CB
:1005A000F3510B890E881B04B6B24F6933430668BA
:1005B000FF007F19F351CB69012B1AD10368FF3378
:1005C000FF330233DE681643DE600B888E881B041F
:1005D000B6B24F6933430668FF003C1933510B89AB
:1005E0008C891B04A4B24E6923430468F600751974
:1005F00063518B69002B036813D0FF33FF33023341
:100600005C6814435C600B69002B03680FD0FF33F8
:10061000FF3302335C6914435C61096A01290CD021
:1006200012E0FF33FF3302335C689443EAE7FF33A1
:10063000FF3302335C699443EEE70168FF31FF3119
:100640000231CB691343CB610068FF30FF300230C9
:1006500001684908490001600020F0BD70470000B2
:10066000F8B5044600680026C1681027C9060029AD
:1006700005DA4169C943090701D47E01C7602068D2
:100680000169C90607D54169C943490603D4012157
:1006900089020E430761216848692546C043C007A7
:1006A000203500283DD18A686648904307D08A6883
:1006B0006548904303D08A686448904331D1886884
:1006C000800705D48868800502D48868800320D517
:1006D0004A692046520852004A61697F122905D1B1
:1006E000036859698F22120291435961697F422937
:1006F00008D0522908D0722908D00121697700F06A
:10070000BDFA09E0222202E0322200E062226A778A
:10071000F5E70120C0020643206881684C4A114376
:10072000816020684169C943890706D4C068800791
:1007300003D000212046FFF7B1FD20684169C9437D
:10074000C90606D40069800703D001212046FFF7BF
:10075000A5FD206C3043206420688169C9070BD057
:100760004169C943C90507D44169C943090403D490
:10077000216C012211432164816989070BD54169EC
:10078000C943890507D44169C943090403D4216CCD
:1007900002221143216481694A070421002A0ADAEE
:1007A0004269D243520506D44269D243120402D4AC
:1007B000226C0A43226482695206520F22D0426997
:1007C000D24312051ED44269D24312041AD483695B
:1007D00070221340402B2AD006DC102B09D0202B8E
:1007E0000AD0302B0BD11FE0502B23D0602B06D129
:1007F00023E0236C082623E0236C3B4323648369B6
:1008000093438361206C00280DD0206842680A431E
:10081000426001206877206841690E4A11404161B9
:100820002046FFF71BFFF8BD236C202608E0236C51
:10083000402605E0236C802602E0236CFF2601366B
:100840003343DBE701000004000100080000011051
:1008500019050100A470FFFFF8B5040006D0254675
:100860002035687F0026002802D005E00120F8BD71
:100870002E77204600F086F80220687721680A6803
:1008800082430A602068016801221143016000F080
:10089000ADFA074604E000F0A9FAC01B0A285ED8AA
:1008A00020684068C007F6D0206841680427C9075F
:1008B000002960D0A2698021012A02683DD08A43C4
:1008C0000260E069402101282068026837D08A432D
:1008D0000260206A202101282068026831D08A4302
:1008E0000260616A1020012921680A682BD08243C6
:1008F0000A60A16A0820012921680A6825D082437C
:100900000A60E06A01282068016820D0B9430160CC
:10091000E168A0686269084321691143084361687E
:10092000491E08432168C8612068016849084900D8
:10093000016000F05BFA009015E00A43C0E70A434B
:10094000C6E70A43CCE70243D2E70243D8E739437C
:10095000DDE700F04BFA0099401A0A2803D903207A
:1009600068772E77F8BD20684068C007F1D120680D
:100970004068C00701D06F7778E726640120687768
:100980000020F8BD10B586B0044614216846FFF774
:10099000FCFB16492068884226D11548C26901210E
:1009A00049060A43C261C2690A4005924269C911F7
:1009B0000A4342614069084005900320000200900C
:1009C0000220019000200290012003900420049056
:1009D0006946084800F066F9002201211E2000F057
:1009E0008DFA1E2000F080FA06B010BD00640040B1
:1009F000001002400004004870B502462032137F08
:100A0000012B09D0012313770023622472250029CA
:100A100004D0012917D022E0022070BD567F222E7B
:100A200026D0567F422E23D0567F622E20D0567F6E
:100A3000722E1DD0567F122E1CD0322E1DD0522E5B
:100A40001DD0222419E0567F322E11D0567F522E0F
:100A50000ED0567F622E0BD0567F722E08D0567F56
:100A6000122E09D0222E08D0422E08D0322404E0C3
:100A70001377D1E7422400E05224547700E0557701
:100A80000364046865698F26360235436561137710
:100A900000680029416904D05022114341610020BF
:100AA00070BD0A22F9E700000EB5002269464A72BD
:100AB000416B0A7C69460A72416B68461431FFF744
:100AC0004BFB6946014801F0F7FD0EBD980200207E
:100AD000F3B50446006883B0816825464901203596
:100AE000002905DB8168090102D48168C9006FD53E
:100AF000297F01290AD001212977697F222908D07D
:100B0000322908D062290DD0122105E0022005B05B
:100B1000F0BD422100E0522169778168490103D587
:100B2000002707E07221F7E78168090101D5012755
:100B300000E002273E010096FF3681368159C90741
:100B4000C90F8151206B216883688A59002B40D0DE
:100B50001A43C3684068C00003431A438A51206B9C
:100B6000017C0907090F016100982168FF30853079
:100B70000A58120912010A5021680A58236B1B698E
:100B80001A430A50206B01901530FFF709FB010250
:100B900001982268007D01430098FF308930115090
:100BA000206B01901930FFF7FBFA010201982268CF
:100BB000007E01430098FF308D301150206881592C
:100BC00001221143815100F011F90026009029E023
:100BD00049E0C36800881A4340050243BEE7049811
:100BE000401C1FD00498002806D000F0FFF80099A0
:100BF000411A0498814215D903206877002F0AD042
:100C00002068012F81680AD00122D205114381603A
:100C10002E7703207BE7206881688022F6E7012297
:100C2000D203F3E7002F0FD02068012F81680FD087
:100C30000F488843D3D1687F42280BD052280BD06D
:100C400072280ED0012008E0206881680948F0E78A
:100C50000948EEE7222000E0322068772E77002056
:100C600055E76220F9E70420687701204FE700008C
:100C7000000001100100000400010008704700009E
:100C800005480169090605D50449416004494160E8
:100C90000020704701207047002002402301674573
:100CA000AB89EFCDF8B5002389E001249C402A46AA
:100CB000A44622407ED04C68022C01D0122C0CD1CC
:100CC000DC08A40027183C6A5D07ED0E0F26AE4035
:100CD000B4430E69AE4026433E6205685E000324BD
:100CE000B4400F79A543BF07BF0FB7402F4307603C
:100CF0004D68012D05D0022D03D0112D01D0122DEC
:100D00000ED18568CF68A543B7402F4387604768F9
:100D10006546AF430D79ED06ED0F9D403D434560BF
:100D2000C568A5438C68B4402C43C4604C68E4009B
:100D300044D5264CA56901263543A561A4699D08C3
:100D400034400094224CAD002F19BC689D072E0F33
:100D50000F25B540AC430925ED06A84201D1002579
:100D60000AE01C4DA84201D1012505E01A4DA84218
:100D700001D1022500E00525B5402543BD60174C93
:100D800025684E689543F60300D5154325606568D0
:100D90004E689543B60300D515436560A5684E6857
:100DA0009543F60200D51543A560E5684E68954366
:100DB000B60200E002E000D51543E5605B1C0A685E
:100DC0001546DA4000D070E7F8BD00000010024080
:100DD00000000140000400480008004800040140F1
:100DE000002A01D081617047816270470148006824
:100DF000704700004C00002070B504000FD021683F
:100E00001348086021681348086003CC41602068DB
:100E1000083C21688860FFF7E9FF054608E00120EB
:100E200070BDFFF7E3FF401B272801D9032070BDE9
:100E30002068C0680028F4D120680269E1688A420D
:100E400001D0016101E004490160002070BD000093
:100E5000CCCC000055550000AAAA00000068024949
:100E60000160002070470000AAAA00000248016843
:100E7000491C0160704700004C00002010B5064876
:100E80000168102211430160002000F007F800F013
:100E900017F8002010BD00000020024010B50446E5
:100EA00000F09CFE7D21C900FFF740F901F0E0F859
:100EB00000222146501E00F021F8002010BD000045
:100EC00008B5084881690122114381618169114097
:100ED0000091C26901040A43C261C06908400090E0
:100EE00008BD000000100240C106C90E0120884064
:100EF000014908607047000000E100E010B501F012
:100F0000D9F910BD10B50C0606D54906490E1C24AA
:100F100061430818283004E01C2461430818FF309E
:100F2000093099B2002A06D001228272C180190CC0
:100F30000181002010BD002282728180F9E71C220D
:100F40004A43121810B5FF30FF300230926BC0696F
:100F500002F09DF810BD1C224A43121810B5FF3054
:100F6000FF32FF30013202309269C06902F0EAF8C4
:100F700010BD0000F0B54A06520E13461C256A4308
:100F8000CC091218002C01D0283201E0FF320932BE
:100F900004461370C909FF345170E134217A0129E4
:100FA0003DD001212172957A494B002D4949557850
:100FB00037D0002D05681678AC465BD0B600AD5B27
:100FC0006F0404D5444F0D403D436746BD5305684B
:100FD0001678AC46B600AD5B6F0605D53C4F0D40AC
:100FE00040373D436746BD5315780668AF00F55B53
:100FF0000D4039490D43F553364F117830373D4098
:10100000066889001D4375521178334A00688900CB
:10101000F13A15401D43455200202072F0BD0220D8
:10102000F0BD002D05681678AC4610D0B600AD5B5B
:101030006F0605D50D40264940310D4361468D535D
:1010400005681078234A8100685A30320EE0B600F5
:10105000AD5B6F0404D50D401F490D4361468D53B0
:10106000056810781C4A8100685AF13A104018430C
:101070006852D1E7B600AD5B6F0404D5164F0D4042
:101080003D436746BD5305681678AC46B600AD5B78
:101090006F0605D50E4F0D4040373D436746BD53A3
:1010A00015780768AE00BD5B0D40094940310D431E
:1010B000BD53094F1678F13F3D400168B6001D430E
:1010C0008D531178034A890000683032A1E700008F
:1010D000808000008F8F000080C00000F0B54B06BC
:1010E000CA095B0E002A04D01C225A431218283267
:1010F00004E01C224A431218FF3209320024947083
:1011000013700346C909FF335170E133197A01297D
:101110001AD00121197251781A4C002911780668E9
:1011200014D08D00715B4F0603D52140164C21432E
:101130007153117800688A00124C815A3034214072
:1011400010246140202414E00220F0BD8D00715B6A
:101150004F0403D521400D4C214371531178006891
:101160008A000A4C815AF13C214001242403614049
:1011700064006140044C403C2143815200201872BD
:10118000F0BD00008F8F0000C080000080C0000014
:101190004906490E1C2251430818FF300130008CCB
:1011A00080B27047F0B54D066D0E2E461C24654387
:1011B000CF092C18002F01D0283401E0FF34093466
:1011C0002670C90961700146FF31E260E131E370C8
:1011D0008C46097A01290DD0012261460A72E27813
:1011E0009349002A08D0012A20D0022A0DD0032AD0
:1011F00025D111E00220F0BD237802689B00D55A6A
:101200000D40FF35FF35023504E0237802689B006E
:10121000D55A0D40D55212E02278036892009D5AAB
:101220000D40032149026918995208E023780268A9
:101230009B00D55A0D40012189026918D1522678A8
:101240000768B5007B5B7B497B4A0B401343334304
:101250007B53A57A002D53D02578784E0B40076834
:10126000AD0033437B53E38850265D0803686D006F
:10127000F65AF6182378DF0001239B02FB18F5527B
:10128000238950265D0803686D00F65AF618237806
:10129000DF005311FB18F55263780768002B2378A1
:1012A00075D09D007B5B5E0403D5654E0B403343D8
:1012B0007B53237807689D007B5B5E0604D55E4EFA
:1012C0000B40403633437B53237805689E00AB5B6D
:1012D0000B405B490B43AB53564E217830363340BD
:1012E0000568890013436B522178554C00688900CA
:1012F000F13C234013434352002061460872F0BD85
:101300006378002BA3881FD05D0803685026F65A27
:101310006D00F6182378DF0001239B02FB18F552BD
:10132000237807689D007B5B5E0604D50B4042492D
:1013300040310B437B53016820783E4C8300C85AF0
:1013400030342040202440E05D0803685026F65ADF
:101350006D00F6182378DF003A4BFB18F55203684E
:101360005025ED5A374EEB182578B61CED00AD1917
:101370005E19E3683E2B0BD9DD022D0CDB0601D193
:101380006D1EADB2AB020125ED032B4307E020E05B
:10139000DD032D0CDB0701D06D1CADB2AB02338039
:1013A000237807689D007B5B5E0403D50B402449CE
:1013B0000B437B5301682078214C8300C85AF13CD1
:1013C0002040012424036040640060401043C85260
:1013D00092E79D007B5B5E0403D5194E0B403343BF
:1013E0007B53237807689D007B5B5E0604D5124E15
:1013F0000B40403633437B53237805689E00AB5B3C
:101400000B400D4940310B43AB530D4E2178F13E5B
:101410003340012636037340760073400568890027
:1014200013436B522178034C89000068303460E725
:101430008F8900008F8F0000808000008081000075
:1014400080C0000004040000F0B54D066D0E1C24A1
:101450006C432418FF340934636122610022A261C5
:1014600062702570E5681E46AB4201D92B46F21A20
:101470006261A67A49060122890DD203002E2F4D02
:1014800006680CD05027BF5BBE192F1FC9197618EC
:101490003E2B15D9D902090CDF060CD00DE05027E0
:1014A000BF5B4919BE19751820E08902114300E09D
:1014B0008902298032E0491E89B28902114306E07F
:1014C000D903090CDF0701D0491C89B28902318098
:1014D0006178002902D0012918D01FE00168502648
:1014E000765A71182678F60075194D193E2B06D9D3
:1014F000D902090CDB06D8D1491E89B2D5E7D90338
:10150000090CDA07D4D0491C89B2D1E7016850220E
:10151000525A51182278D20052198B520168207801
:10152000074B8200885A184001231B0358405B0078
:101530005840044B184388520020F0BD06040000B8
:101540008FBF000080800000F0B50246FF32E1321C
:10155000137A012B0BD001244F06CB097F0E147296
:10156000002B06D01C237B431B18283306E00220E7
:10157000F0BD1C234B431B18FF3309339C701F70B5
:10158000CE095E70012424031025114B002F0BD0CF
:101590004906C90D002E10D004680E4E605A304026
:1015A00068401843605210E001680B4E08883040D4
:1015B000604068401843088007E00568064E685A96
:1015C000303E304060401843685200201072F0BD39
:1015D00080800000BF8F0000BFBF0000F0B506464E
:1015E0001D464806400E1C2343439C19E563A26335
:1015F000002222640123283463702070E0682B46A7
:10160000854203D90546181A606100E06261A07A3C
:101610002A4F002810D0227830689200825C490658
:101620005206890D002A16DA5022125A10183A1D55
:1016300089184552228914E0ABB2A288216930682A
:1016400001F00BF830685021095A08182178C900B8
:10165000C919455220E05022125A1018C919455292
:10166000E288ABB22169306800F0F7FF6178144876
:10167000002902D0012907D00EE0217832688B00C2
:10168000D15A01400F4805E0217832688B00D15AC9
:1016900001400D480143D152207831688200084B47
:1016A000885A303318401023584020235840054BA7
:1016B000403B184388520020F0BD000002040000A7
:1016C0008F8F0000C080000080C0000070B504460D
:1016D000006840308088C00B02D0204600F00CFE2D
:1016E00020684030818849050AD58188334A1140F5
:1016F0008180204600F0DAF80021204600F000F951
:10170000206840308188490403D581882C4A1140E3
:101710008180206840308188890403D58188294AE6
:10172000114081802068403081880425C904002947
:1017300010DA0188A9430180BD20216800024031F0
:101740000880204600F0BEF82068403081881E4A9C
:1017500011408180206840308188090517D5818833
:101760001A4A1140818020684030018808221143C4
:101770000180206840300188294301802068403082
:101780008088C043C00402D5204600F0E3F82068FA
:1017900040308188890506D581880D4A11408180B5
:1017A000204600F0A5F8206840308188C90503D59F
:1017B0008188084A1140818070BD0000FFFB000055
:1017C000FFBF0000FFDF0000FFEF0000FFF7000099
:1017D000FFFD0000FFFE0000F8B5002704460028CA
:1017E00007D02646FF36E136707A0025002802D061
:1017F00005E00120F8BD3572204600F03BF80320DB
:10180000707201210BE01C20784302191046203031
:1018100041720772C572556395637F1CD56360681A
:10182000B842F0D800200BE01C2242431219FF32CC
:10183000013255721072D57255619561401CD561A7
:1018400062688242F0D820684030018020684030D1
:101850000580206840308580206840300582BF20A8
:1018600022680002403210802034257171720020FD
:10187000F8BD000008B500680A49884210D10A483E
:10188000C2690121C9050A43C261C069002208403A
:10189000009001211F20FFF731FB1F20FFF724FBE1
:1018A00008BD0000005C00400010024010B5C41DDF
:1018B000FF34FA340121E06901F03DFDE06901F0F7
:1018C00002FD10BD10B504468069002806D0074807
:1018D000016906229143016100F03AFFFF34FF34B1
:1018E0000234E06901F012FD10BD000000ED00E0DF
:1018F000FF3010B5FF300230C06901F00DFD10BDA2
:101900000246FF32E132137A012B08D00123137211
:10191000002906D02030017100201072704702208B
:1019200070470068802140308181F5E710B587213C
:1019300089000A580146FF31ED31104601F011FDD2
:1019400010BD00684030018B0122D2031143018396
:101950000020704710B50446FF30FF300230C069E8
:1019600001F054FDA069002804D003480169062253
:101970001143016110BD000000ED00E0F8B5044620
:1019800000683E4DC00352D5E8690026C00007D468
:10199000E96928040143E961E969014001260091F0
:1019A00037480168C90510D40168821511430160E8
:1019B000FFF71CFA074604E0FFF718FAC01B64287B
:1019C00024D82F480068C005F6D5286A03273F02AF
:1019D000384020D06168394081421CD0286A2A6A88
:1019E000B843012109040A432A622A6A8A432A6207
:1019F0002862C0070FD0FFF7F9F9009008E0FFF761
:101A0000F5F90099411A1F48814201D90320F8BD18
:101A1000286A8007F3D5286A6168B84308432862BA
:101A2000002E04D0E969012000078143E961207894
:101A3000C00705D0286BA168800880000843286390
:101A40002078800605D5286B10218843E16808437B
:101A500028632068800305D5286B8021884361694D
:101A6000084328632088400505D5286B402188431A
:101A70002169084328630020F8BD000000100240DF
:101A80000070004088130000F8B505464E480E4629
:101A90000068C007C00FB0420AD24B48016849082D
:101AA0004900314301600068C007C00FB04270D1E7
:101AB0002878464C800705D56068F0218843A968DE
:101AC000084360602878C00753D06868012817D0A1
:101AD000022818D0032819D021688907002958DA6C
:101AE00061688908890001436160FFF77FF96968CF
:101AF0000746012913D002291DD0032927D034E03D
:101B000021688903EAE721688901E7E7616BC90376
:101B1000E4E7FFF76BF9C11B2D48814223D86068C9
:101B20000007800F0128F4D123E0FFF75FF9C11B04
:101B30002748814217D860680007800F0228F4D137
:101B400017E0FFF753F9C11B214881420BD86068A9
:101B50000007800F0328F4D10BE0FFF747F9C11B02
:101B60001B48814201D90320F8BD60680007800F3F
:101B7000F3D115480168C907C90FB1420BD90168F3
:101B800049084900314301600068C007C00FB042F6
:101B900001D00120F8BD2878400706D560680721EC
:101BA00009028843E9680843606000F02DF8616825
:101BB000084A0906090F515CC8400749086000201F
:101BC000FFF76CF90020F8BD002002400010024031
:101BD00088130000D8390008500000200148006830
:101BE000704700005000002004480549006849681B
:101BF000044A4905490F515CC84070475000002015
:101C000000100240E839000870B518A20FCA88B069
:101C10006C460FC419A30FCB0FC41C494A680C2093
:101C2000144604401A48042C06D01A4B8510082C80
:101C300004D00C2C18D0284608B070BD9402240F94
:101C40006E46345DC96A04AE0907090FD203715CA0
:101C5000920F022A02D0032A04D02846FEF766FA21
:101C60006043E9E71846F9E71846E5E7020304058B
:101C7000060708090A0B0C0D0E0F101001020304D1
:101C800005060708090A0B0C0D0E0F100010024084
:101C90000048E801006CDC02FEB504460078F04E16
:101CA000F04DC00748D068680007800F01281FD09A
:101CB00068680007800F022804D16868C003800F9D
:101CC000022815D06168012919D00120800400295B
:101CD00001D0052917D02968B143296029688143BB
:101CE0002960606800281BD0FFF780F8074613E0E2
:101CF0002868800320D56068002876D01CE028681A
:101D000030432860EDE7296801432960F7E7FFF7D2
:101D10006DF8C01B642869D828688003F7D50BE0EC
:101D2000FFF764F8074604E0FFF760F8C01B64287B
:101D3000F1D828688003F7D4207880073ED56868FA
:101D40000007800F14D068680007800F022804D1B4
:101D50006868C003800F01280AD0E068002828685E
:101D60001DD0012108432860FFF740F807460BE02B
:101D7000286880070BD5E068012836D107E0FFF717
:101D800035F8C01B0228C6D828688007F7D5286810
:101D9000F82188432169C900084328600EE0400803
:101DA00040002860FFF722F8074604E0FFF71EF81E
:101DB000C01B0228AFD828688007F7D42078000716
:101DC00024D5E0690028686A11D0012108436862BF
:101DD000FFF70CF8074604E0FFF708F8C01B0228DD
:101DE00099D8686A8007F7D510E036E1D1E040085D
:101DF00040006862FEF7FAFF074604E0FEF7F6FFD0
:101E0000C01B022887D8686A8007F7D42078042787
:101E10004007002861DA00200190E869C00008D47A
:101E2000E969B8060143E961E969014001200091CF
:101E300001908D480168C90511D4016882151143CC
:101E40000160FEF7D3FF009005E0FEF7CFFF009999
:101E5000401A642897D884480068C005F5D5A06862
:101E600001280AD0002801D0052811D0286A40088E
:101E700040002862286AB84302E0286A012108432A
:101E80002862A068002812D0FEF7B0FF00900AE098
:101E9000286A38432862F0E7FEF7A8FF0099411A44
:101EA0007248814275D8286A8007F5D50DE0FEF7A3
:101EB0009DFF009006E0FEF799FF0099411A6B48DC
:101EC000814266D8286A8007F5D40198002804D09A
:101ED000E969012000078143E9612078C00635D512
:101EE000606901280CD0401D686B24D038436863BA
:101EF000686B400840006863FEF778FF074622E001
:101F0000686B38436863686B012108436863FEF7B8
:101F10006DFF074604E0FEF769FFC01B022838D8B2
:101F2000686B8007F7D5686BF8218843A169C90001
:101F3000084368630AE0B8436863F4E7FEF756FFB6
:101F4000C01B022825D8686B8007F7D4207880064C
:101F500037D568680007800F032813D0686800072A
:101F6000800F022804D16868C003800F032809D0BD
:101F7000206A0028686B16D030436863FEF736FF8E
:101F800006460CE0686BC0031BD5206A012864D1AB
:101F900017E05BE0FEF72AFF801B022856D8686B2B
:101FA000C003F7D50DE0B0436863FEF71FFF064698
:101FB00004E0FEF71BFF801B022847D8686BC003B4
:101FC000F7D4606A002846D069680907890F02299A
:101FD00043D0012636060228286805D0B043286081
:101FE000FEF704FF044633E0B0432860FEF7FEFE30
:101FF000074604E0FEF7FAFEC01B022826D8286830
:102000008001F7D4E86A216B000900010843E86207
:10201000A16AE06A084369687B22D20391430843BE
:102020006860286830432860FEF7E0FE044604E05C
:10203000FEF7DCFE001B022808D828688001F7D5CF
:1020400009E0FEF7D3FE001B022801D90320FEBDE4
:1020500028688001F5D40020FEBD0120FEBD0000EF
:1020600000000100001002400070004088130000D2
:10207000094910B5401E884201D9012010BD074C06
:1020800060610321081F00F015F90020A0610720FE
:102090002061002010BD0000FFFFFF0000E000E015
:1020A00070B5040005D025466035687A002802D056
:1020B00006E0012070BD00202872204600F026F8BE
:1020C00024206872206801684908490001602046A0
:1020D00000F03AFC0128EDD0606A002802D02046CA
:1020E00000F098FB206841680922D20291434160C8
:1020F000206881682A22914381602068016801225A
:1021000011430160204600F0EBFB70BD10B586B0B6
:10211000044614216846FEF738F8134920688842BF
:102120001FD112488269012189030A4382618269B1
:102130000A4005924269C9000A4342614069084069
:1021400005900320400200900220019000200290A0
:10215000032003900120049009206946C006FEF781
:10216000A1FD06B010BD0000003801400010024083
:10217000FEE7000010B50D480B4901600C490B2229
:10218000C97841600021816012040261C1608161EF
:10219000C1610122016292054162426181620121B5
:1021A000C162FEF759FB10BD006400406C010020C5
:1021B00000000020F0B587B014216846FDF7E5FF68
:1021C0001F4842690121C9040A43426142690A4029
:1021D00005924269C9000A43426142690A40059278
:1021E000426949110A43426142690A4005924269C3
:1021F00049000A4342614069124E08404C11059063
:10220000012221463046FEF7EBFD0F4F00228021D0
:102210003846FEF7E5FD009400240125019502945F
:10222000694630460394FEF73DFD802000900294FD
:102230006946019503943846FEF734FD07B0F0BDBA
:1022400000100240000800480004004810B50A4889
:1022500008490160E1214902416000218160C160BB
:1022600001618161C1610C22016242614162FFF73B
:1022700017FF10BD00380140C001002010B500223A
:102280000749084800F0C4FE0749064801F0EDF888
:102290000649044800F0F5FC024801F037F910BD8A
:1022A0000800002098030020340100203C0000209A
:1022B000704700008307FF22DB0E9A408907090E52
:1022C000994000280BDA0007000F083883080848F7
:1022D0009B001818C36993430B43C361704783087D
:1022E00004489B001B181868904308431860704707
:1022F00000ED00E000E400E0F0B585B00446002009
:10230000694688802646203678E19A8917073F0F6C
:1023100026D0B9000291425A9A80998809047DD545
:10232000BE490A400299425238461C2148430519C9
:10233000FF350935A87A0028206870D029788A00EE
:10234000825A52046CD55022125ACB00B44912184A
:102350005918515A8905890D00917DD0EA88BDE050
:102360009A89D20627D40188AE4A254611400180B9
:1023700020685021095A283508182978CA00A84928
:102380005118405A8005800D2064A16B0818A06385
:1023900000212046FEF7D3FD30790028B4D06869CB
:1023A0000028B1D1307980210843216840318881EB
:1023B0000020307122E12546FF35028809359A80D8
:1023C0009B881B0519D5098A09182878C2009448EA
:1023D000001D1018085A294683059B0DAB61AA8879
:1023E000E431206800F024F920688C4A018811400B
:1023F00001802046FFF79AFA00E1694689880904BE
:10240000D8D58649864F0A40028020685021095A53
:102410003F1D09182878C000C01902E085E03DE0A2
:102420004FE0085A83059B0DAB6108D0AA88296943
:10243000206800F0FDF8A96928694018286100218A
:102440002046FEF788FD206801464030008A40188B
:10245000C119E8683E2800E044E00AD9C202120C23
:10246000C00601D1521E92B290020122D203104343
:1024700006E0C203120CC00701D0521C92B29002B7
:1024800008802168684A08881040012212035040E1
:1024900052005040654A10430880AFE05021095A6D
:1024A0000A182978CB005E49091D5918515A890527
:1024B000890D009121D0AA882969009B00F0B8F805
:1024C0001BE05022CB00125A55491218091D591809
:1024D000515A8905890D009104D02A892969009BE8
:1024E00000F0A6F8297820688A004E4B815A803384
:1024F00019404E4B403319438152A969009808187E
:10250000A861296900980A182A616B69002B03D019
:10251000E9680098814204D929782046FEF71BFD1E
:1025200003E029782046FEF78FFF68468088000682
:1025300064D51C204743206802993A4A415A3D1904
:102540001140029A28358152A87A0028206811D0BB
:1025500029788A00825C52061ED55022125AC90080
:1025600012182F480818105A83059B0DAB6124D010
:10257000EA881EE05021095A09182878C200284824
:102580001018085A83059B0DAB6121D0AA882969D0
:10259000206800F062F81BE05022125AC90012189D
:1025A0001F48001D0818105A83059B0DAB6104D00D
:1025B0002A892969206800F050F82878226880006C
:1025C000184B115A80331940174BF13319431152EC
:1025D00020685021095A09182878C200104810189C
:1025E000085A8005800DA86129690A182A616B695B
:1025F0002978002B20460DD0FEF7F0FF2068014619
:1026000040318A886B469A81120400D57DE600200D
:1026100005B0F0BDFEF793FCF0E700008F0F00005F
:10262000020400000F8F00008FBF000080800000B8
:10263000101810B5012292025C088018002C07D0F7
:1026400002880A70120A4A70801C891C641EF7D125
:10265000DA0701D00078087010BD101801225B1C49
:10266000920210B55B088018002B08D04A780C78CD
:10267000120222430280801C891C5B1EF6D110BD11
:10268000704710B503460246C033588F0C46998FE9
:1026900088420FD0588F401C80B2192800D30020E8
:1026A00058870A21484381180A222046FDF754FD25
:1026B000012010BD002010BD70B50546C035AA8FA1
:1026C000521C94B2192C00D300240A226243101821
:1026D0000A22FDF741FDAC87688FA04201D101209D
:1026E000E88770BDFFB583B0002614460F460C9DE9
:1026F0000096134A072168460196FDF7EBFE6846EF
:102700000088039940BA08806846408840BA3880FB
:1027100068460079FF280CD0002800D001202070E6
:10272000684641790698017068468079FF2802D092
:1027300002E02670F4E72820287007B0F0BD000002
:1027400000780008704710B5FEF790FB10BD000040
:1027500070B598B034216846FDF717FD00240D943C
:102760000E940F94182111A81094FDF70EFD292046
:102770000090012007900190089000040A90072023
:102780008004022507260B9009950C966846FFF7F2
:1027900083FA0F9401210DA80D960E951094FFF762
:1027A00073F9044816941190139411A8FFF7E6F8F2
:1027B00018B070BD010002001348016801221143E6
:1027C00001604168114A114041600168104A11409E
:1027D00001600168012292049143016041683F2237
:1027E000120491434160C16A09090901C162016B88
:1027F000FF22D43291430163416B49084900416390
:102800000021816070470000001002400CB8FF08F2
:10281000FFFFF6FE10B5818CC90707D001684A6832
:1028200001235B049A43836A1A434A60818C8907B7
:1028300007D501684A6801231B049A43C36A1A43F7
:102840004A60818C490707D501684A6801239B04C7
:102850009A43036B1A434A60818C090707D50168C4
:102860004A680123DB039A43436B1A434A60818C15
:10287000C90607D50268916801231B039943836B3E
:1028800019439160818C890607D501688A68012304
:102890005B039A43C36B1A438A60818C490612D545
:1028A00003685A6801210905046C8A4322435A606F
:1028B000026C8A4207D10268516803235B05994381
:1028C000436C19435160818C090607D501684A6839
:1028D0000123DB04806C9A4302434A6010BD000070
:1028E000F8B500260446C666FEF780FA0546144988
:1028F000206888421DD10068124F000709D50121C8
:102900002B46002249052046009700F0B5F8002824
:102910000DD12068006840070BD501212B4600220D
:1029200089052046009700F0A7F8002801D0032071
:10293000F8BD202060346072A07226720020F8BDBD
:1029400000380140FFFFFF01F8B504462369A26883
:10295000E5691A43636910202B43002125681A4357
:102960002B680E463E4F3B4013432B6023685A684A
:1029700003252D03AA43E5682A435A60236AA26906
:1029800025681A43AB680B273F02BB431343AB6078
:10299000344A2568954210D1334A126B9207920F40
:1029A0000ED0012A05D0022A05D0032A09D102201F
:1029B00007E0042005E0082003E02C4A954200D1FE
:1029C00000200122E369D203934224D100280CD0D5
:1029D00002280DD0042813D0082817D001260A0990
:1029E00012010807400F10432FE0FFF7FDF809E040
:1029F00061681F4A48088018FDF798FB81B2EEE72E
:102A0000FFF702F9616840004A08F4E761680122B3
:102A100048081204EFE7002808D0022809D004284B
:102A20000BD0082814D001263046F8BDFFF7DCF89B
:102A300005E061680F4A48080CE0FFF7E5F86168B7
:102A40004A088018FDF772FB80B22168C860EBE786
:102A5000616848088018FDF769FB80B2E860E3E729
:102A6000F369FFEF003801400010024000440040CD
:102A70000024F40000127A00FFB581B017460E461C
:102A800004460A9D1DE0681C1BD0002D05D0FEF7F2
:102A9000ADF90499401AA84213D920680168FF22B1
:102AA000A132914301602068816849084900816032
:102AB000202060346072A07200202072032005B0D4
:102AC000F0BD2068C1693046884304D00020B84278
:102AD000D9D00020F3E70120F9E7FF30FF300230C2
:102AE0008069002806D0FF300021FF3002304161AC
:102AF000084670470220704770B5C21DFF32FA3297
:102B00001546946900F058FBE11DFF31FA31C860A9
:102B1000A869002808D04868E969CA688321890043
:102B200061189047002070BD022070BD70B504464A
:102B30000025812100F098FA0121204600F094FA46
:102B40008221204600F090FAFF34FF340234A0695D
:102B5000002807D0E06940688047A06900F0E4FDE4
:102B60000020A061284670BDFF3010B5FF301A303C
:102B70000AC8002B0AD0CC1DFF34FA342078FF2875
:102B800004D09B6862789847FF202070002010BD19
:102B90000A210180004870475C0000204321018029
:102BA00000487047AC000020432101800048704776
:102BB000680000204321018000487047F000002099
:102BC000F8B50446007C012600257602002830D0A6
:102BD000402302228121204600F04CFB40230222A8
:102BE0000121204600F046FB0823032282212046D3
:102BF00000F040FB8720800000F098FDE11DFF31D0
:102C0000FA31886100281CD00746C86900688047EF
:102C1000FF370020FF3702377861B861207C7A687F
:102C2000002810D040230121204600F039FB28461F
:102C3000F8BD334602228121204600F01BFB3346BB
:102C4000CDE70125F3E73346EDE710B54321C90091
:102C50000958002913D0027C002A09D0FF31FF3126
:102C600002314A684023012100F01AFB002010BD08
:102C7000FF31FF31023101235B024A68F3E7022092
:102C800010BD02460220002904D0FF32FF3202327A
:102C90000020D1617047FF30FF3002308069FF3083
:102CA000FF300230416000207047FF30FF300230BB
:102CB0008069FF30FF300230026181600020704780
:102CC00070B50C46C11D0546FF31FA3120786022EF
:102CD0008E69024022D0202A28D1E288002A16D00C
:102CE000000607D5C96960788B6831469847E28845
:102CF000314618E0F01DFF306178FA300170A1799B
:102D00004170E2883146284600F050F80EE0C9696B
:102D100060788B6800222146984707E060780A288F
:102D200004D103490122284600F05CF8002070BD60
:102D30005800002010B54321C9000958002911D0BE
:102D4000FF31FF3102314A69002A01D0012010BD54
:102D500001224A610A8A93B28A68812100F05EFBEF
:102D6000002010BD022010BD10B58522920012581F
:102D700052689047002010BD134610B50A46002146
:102D800000F08EFA002010BD134610B50A4600214F
:102D900000F044FB002010BD10B50446802100F077
:102DA0000FFB0021204600F00BFB10BD10B5FF23E8
:102DB0000324F5331C50C31DF9339A60DA601346BF
:102DC0000A46002100F06CFA002010BD10B5FF216A
:102DD0000522F5310A5000231A46194600F060FA20
:102DE000002010BD10B5FF230224F5331C50826172
:102DF0001346C2610A46002100F010FB002010BDFE
:102E000010B5FF210422F5310A5000231A46194655
:102E100000F004FB002010BD10B50A46024903A0D3
:102E200000F0D4F8004810BDFC09002043444320C2
:102E3000436F6E6669670000122008800048704783
:102E40002800002010B50A46024903A000F0BEF891
:102E5000004810BDFC09002043444320496E7465BE
:102E600072666163650000000420088000487047B6
:102E70002400002010B50A46024903A000F0A6F87D
:102E8000004810BDFC09002053544D6963726F6502
:102E90006C656374726F6E696373000010B50A46E7
:102EA000024903A000F092F8004810BDFC09002080
:102EB00053544D3332205669727475616C20436FE0
:102EC0006D506F727400000010B50A46024903A0ED
:102ED00000F07CF8004810BDFC0900203030303094
:102EE000303030303030314100000000F8B50D4650
:102EF00004464988FF300A0AFF300230130000F010
:102F000039FC084905091649493E46490069237CB0
:102F100002682AE0217C02264069002905D0C16AA6
:102F2000684688470146467040E0816AF8E7C9B2C2
:102F30000B0000F01FFC0604080F13171E2F00697A
:102F4000227C436802E00069227C8368694610465F
:102F5000984712E00069227CC368F7E70069227C89
:102F60000369F3E70069237C426969461846904784
:102F700003E00069227C8369E8E7014616E0217CD2
:102F8000002907D14069416B68468847F5E7217CF5
:102F9000002904D029462046FFF7FEFEF8BD40690F
:102FA000016B6846884707220146427068460088E0
:102FB0000028F3D0EA88002AF0D0824200D90246E5
:102FC000684602802046FFF70DFFF8BD70B500236C
:102FD00000281CD00446002502E06D1CEDB2641CE4
:102FE0002678002EF9D16C00A41C1480CC54032246
:102FF0005B1CCA5400245B1C06E0CA545B1CDAB29A
:103000008C54521CD3B2401C0278002AF5D170BDFA
:1030100010B5002813D0C31DFF33FA335C69002CB0
:1030200001D000245C61002900D01961FF21012337
:10303000FD310B54027000F0C7F8002010BD0220D3
:1030400010BD10B5FF30FF3002300024006AFEF7DB
:1030500045F8002806D0012801D0022801D002241A
:1030600000E00124204610BD10B5FF30FF300230D3
:103070000024006AFDF77EFF002806D0012801D059
:10308000022801D0022400E00124204610BDFEB534
:103090000446FF30E51DE130FF35FA351346019057
:1030A000002908D068694269002A49D00198007F48
:1030B000032843D044E02646FF3681362046716F10
:1030C0001430022934D1C26881680092914207D934
:1030D000891A81608AB219462046FFF755FE13E02F
:1030E000406811460746FDF721F8002913D10098E2
:1030F000874210D3B06F87420DD20022114620467E
:10310000FFF742FE0020B06700231A46194620460A
:1031100000F0C6F80CE06869C168002905D0019884
:10312000007F032801D1204688472046FFF74EFE46
:103130002878012804D10020287001E0204690471B
:103140000020FEBD70B50546FF35E1352B46203326
:1031500016460446002907D058698269002A29D0FA
:10316000287F032824D025E0FF21F531E01D0959EF
:10317000FD3003291ED18268C1688A420BD9511AD9
:103180008160C068814200D301468AB23146204640
:10319000FFF7F2FD0EE058690169002904D0287F8D
:1031A000032801D1204688472046FFF729FE01E089
:1031B00020469047002070BDFF3010B5FF30023030
:1031C000006AFDF7E5FF10BD10B51E49C41DC861BA
:1031D000FF341D49FA341D4821620860022208208C
:1031E0008A60486003200A61C86000208861C86165
:1031F00008620846FEF7F0FA002801D0FDF74EF904
:10320000002218231146206AFDF77CFE5823002275
:103210008021206AFDF776FEC02300228121206AEA
:10322000FDF770FEFF23113300220121206AFDF714
:1032300069FEFF23013300228221206AFDF762FE2E
:10324000002010BDDC090020DC070020005C0040ED
:10325000FF30CA09FF3049060230490E1C23006ABC
:1032600059430818002A01D0203001E0FF30013016
:10327000807A704770B5FF301D46FF30023013462C
:103280000024006A2A46FDF78DFF002806D0012899
:1032900001D0022801D0022400E00124204670BDA4
:1032A00010B5FF30FF3002300024006AFEF7CCF882
:1032B000002806D0012801D0022801D0022400E015
:1032C0000124204610BD70B500220446402311465B
:1032D000FFF7D0FF4025FF20113005512B4600227B
:1032E00080212046FFF7C6FFFF200121FD30256227
:1032F0000155E01DFF30FA308169002904D0406992
:103300002179426820469047002070BDFF30E130AF
:10331000417F01770020704710B5FF21FD31095C26
:10332000032906D1852189000958C969002900D0DF
:103330008847002010BD01740020704710B5FF3091
:10334000FF3002300024006AFEF7DAFA002806D0C7
:10335000012801D0022801D0022400E001242046E7
:1033600010BD70B504464120C0002018054600F08D
:1033700068F82146FF3181310122084680304A67D2
:10338000C2898A67007AC106C90E0AD001290DD008
:10339000022910D0C109C901204600F011F800200F
:1033A00070BD2946204600F0B6F8F8E729462046C9
:1033B00000F09DF9F3E72946204600F023F9EEE7F7
:1033C00010B5FF30FF3002300024006AFEF7BCF871
:1033D000002806D0012801D0022801D0022400E0F4
:1033E0000124204610BD10B5FF30FF30023000240C
:1033F000006AFEF7A6FA002806D0012801D00228AC
:1034000001D0022400E00124204610BDFF30E1304D
:10341000017F4177042101770020704710B5FF300C
:10342000FF3002300024006AFEF7D8F8002806D0EA
:10343000012801D0022801D0022400E00124204606
:1034400010BD0A7802704A784270CB788A781B02E5
:10345000D21842804B790A791B02D21882808A796D
:10346000C97909025118C18070470246002000291D
:1034700004D0FF32FF3202325161704702207047A0
:1034800010B58522920012580224002A04D0126836
:103490009047002800D10024204610BD70B50E468C
:1034A0008978194D04462970012904D931462046EE
:1034B000FFF772FC70BD2046FF30E130027F022A28
:1034C00015D0032AF2D1002917D0606888420AD0AB
:1034D000C1B22046FFF748FC297861602046FFF71B
:1034E000CFFF0228E2D02046FFF78AFC70BD0029FA
:1034F000F9D0032261600277F0E7022202772046CA
:103500006160FFF731FCEEE75400002010B5FFF7D3
:103510006AFF002010BDF8B500220092C61DFF36DC
:103520004C781746FA3632460125203A230000F03F
:1035300021F90A3C564150410906412B2841FFF729
:10354000D5FC5DE004468888002818D1C88800288A
:1035500015D1887817464606107F760E03280ED0C0
:10356000BE7731462046FFF7E9FE2046FFF748FCCC
:10357000002E02D00220387742E03D7740E020461E
:1035800018E0FFF78BFF3BE0CB88012B12D1127FB5
:10359000022A02D0032A0DD104E00122014608319B
:1035A000876013E00122011D10E0127F022A04D07F
:1035B000032A02D0FFF7F0FB22E0C5607168002902
:1035C00001D00321C160014602220C31FFF70AFC41
:1035D00016E004464888012812D1756009E00446C7
:1035E000107F022801D00328C9D14888012807D1BB
:1035F000776070698268204690472046FFF700FC9C
:103600000098F8BDF8B504460D462878E61D40063A
:10361000FF3600270979800FFA36012809D06A7829
:1036200030462038002A38D0012A1ED0032A3DD146
:1036300006E0706929468268204690470020F8BD60
:10364000007F022817D003282CD16888002806D1D3
:10365000002904D0802902D02046FFF7B1FE70690E
:10366000294682682046904713E0007F022802D056
:10367000032817D104E0002918D080291AD115E0B9
:103680006888002812D1480603D02046FFF7D9FCED
:10369000E5E72046FFF7B4FB08E0007F022807D0EB
:1036A00003280BD029462046FFF776FB3846F8BDA5
:1036B0004806FBD02046FFF783FEF7E7C80904D091
:1036C0004806400D0519143504E04806400D05195B
:1036D000FF3505352046FFF7BBFD002800D001204F
:1036E0002860022229462046FFF77CFBDEE770B502
:1036F0000446FF30E130007F0D4603280FD12879C2
:1037000001280CD885208000005982682046904707
:10371000E888002806D12046FFF772FB02E0204629
:10372000FFF73AFB002070BD70470000004870476B
:10373000BC05002010B50248FDF7C8FF10BD000011
:10374000DC0700207CB50024069D00940194060A45
:103750006C4626706070080AA070E1702271637177
:10376000A571034A07216846FCF7C4FE7CBD000032
:103770000078000830B47446641E2578641CAB429F
:1037800000D21D46635D5B00E31830BC184702E0C1
:1037900008C8121F08C1002AFAD1704770470020DC
:1037A00001E001C1121F002AFBD17047002213461D
:1037B00002E08354521CD2B28A42FAD3704700000E
:1037C0001FB5FDF75BFB33480090431E821EC11CF2
:1037D000401CFEF787FFFEF7BBFFFEF7EBFCFEF792
:1037E000C9FCFEF74BFD2D482B49016004214160C7
:1037F0002B49C1602B498160FDF7FEFAFEF726FDDB
:10380000FCF716FD254800214438FDF7F5F8234D57
:10381000443D224801A9E830FEF733FF00280FD0CD
:103820006846407B01280FD000246846017B01A830
:10383000FCF7F8FD641CE4B2322C01D20028F4D16C
:103840001648FDF70BFBE4E701AB07CB00F02CF8C3
:103850000028F5D16846296B007B0861002001A98A
:1038600005E002460B5C14322C6B401CA3546A46E4
:10387000127B8242F5DC074E0024F61E0748B17821
:103880004438FDF725F9641CE4B2322CD8D2002864
:10389000F4D1D5E70300002000300040B001002043
:1038A000FF0F0000E204000037B584B06946097ECE
:1038B00004A8491EFCF7DAFD69460A7E0F31515C07
:1038C00088426FD16846017C0120F0390222002530
:1038D000404C0B00FFF74EFF09060C2129415258BE
:1038E00067757C00F02269460A71487120785FE0B4
:1038F000F120694608714A71A088020A1FE001A8F8
:10390000FCF790FDE0780090A3786278E188A088C9
:10391000FFF718FF012007B030BD6946488A40BA5A
:10392000A080FCF785FCF22026E0F32168460171B7
:1039300042716078002804D0E0886946020A8A71E2
:1039400002E0FF2069468871C871042101A8FCF7D4
:103950008DFD694608720521D1E76946897C0729F2
:1039600005D860706846408A40BAE08001E0657022
:10397000E580FCF75DFCF420694609E0F522694624
:103980000A714871A07813E06946887CA070F6201F
:1039900008714D71022101A8FCF768FD6946887124
:1039A0000321ACE714E0F72269460A714871E07818
:1039B0008871032101A8FCF759FD6946C8710421EB
:1039C0009DE76946887CE070FEF7D4FBF820D3E7DA
:1039D0000020A0E700000020000000000000000020
:1039E00001020304060708090000000001020304A5
:1039F000103A0008000000206C010000D801000807
:103A0000CC3A00086C010020941600009E37000894
:103A1000721913392E1B0869041A75041A9D041AA9
:103A2000C9041A19041A45041704030904120114DD
:103A300002020216408304405726020102030113CA
:103A4000C9031B08C3041ABF041AED045193127A68
:103A5000130A0632021A402B111C090243371125A2
:103A6000C03209041B01020B1305241610010524A2
:103A7000011009010424020205240617010705822A
:103A800003081C1009046D320A1D07050102432CAE
:103A9000070581070938442A40072A8107112B09A5
:103AA00007440A2204440A16FF4413C12B1B082DA5
:103AB000044BC12CF41A690C13DB2A1B08F904C14E
:0C3AC0001AA9181A9D041AB5041A9104E2
:04000005080000C12E
:00000001FF
